S00F0000545749746573742E7372656361
S11300000C942A000C9447000C9447000C9447006D
S11300100C9447000C9447000C9447000C94470040
S11300200C9447000C9447000C9447000C94470030
S11300300C9447000C9447000C9447000C94470020
S11300400C9447000C9447000C9447000C94470010
S11300500C94470011241FBECFE5D8E0DEBFCDBF0E
S113006010E0A0E6B0E0E2EEF6E002C005900D92EA
S1130070A438B107D9F720E0A4E8B0E001C01D928C
S1130080AF39B207E1F70E949D020C946F030C9400
S11300900000EF92FF921F93CF93DF93A4E6B0E0AA
S11300A0C4E8D0E020E830E011E0EC91E43010F551
S11300B0F0E0E05AFF4FE081EE2EF12CA701FA01A7
S11300C0629112967C91129711969C9111979723A5
S11300D0962B9083F7013297908113968C91139706
S11300E08723892B808319931496A217B307E9F603
S11300F080E001C081E0DF91CF911F91FF90EF90EC
S113010008958730E0F590E0FC01EE0FFF1FEE0F3D
S1130110FF1FEC59FF4F22812F3F99F5FC01EC574B
S1130120FF4F2081213079F5611114C0880F991F88
S1130130880F991FFC01EC59FF4FA081B0E0A05A31
S1130140BF4FAC91B0E09C918181809589238C93C1
S113015080E008956F3FC9F4880F991F880F991F95
S1130160FC01EC59FF4FA081B0E0A05ABF4FAC9105
S1130170B0E09C918181892B8C9380E0089581E08B
S1130180089581E0089581E0089580E0089511B80C
S113019080E280B984E086BF089584EA86BF06B60B
S11301A007FEFDCF089584E986BF089583B984E8E6
S11301B086BF06B607FEFDCF089520E4829FC001E6
S11301C01124846886BF06B607FEFDCF83B1089567
S11301D0CF93DF9300D000D0CDB7DEB719821A8257
S11301E01B821C82880F991F880F991FA0E0B0E022
S11301F049815A816B817C81481759076A077B07BB
S1130200ACF449815A816B817C814F5F5F4F6F4FA2
S11302107F4F49835A836B837C8349815A816B81E5
S11302207C81481759076A077B075CF30F900F908E
S11302300F900F90DF91CF910895CF92DF92EF92BC
S1130240FF920F931F93CF93DF93C82F60E080E05A
S11302500E94810060E081E00E948100DC2FD29541
S1130260DF7000E810E00F2EF4E8EF2EF0E0FF2E30
S1130270F02D68016D2F61706195D695F60181911D
S11302806F010E948100EC14FD04A1F76FEF82E07E
S11302900E94810084E690E00E94E80060E082E031
S11302A00E948100CF706C2F61706195C695F80132
S11302B081918F010E9481000E151F05A1F76FEF38
S11302C082E00E94810084E690E00E94E80060E001
S11302D082E00E94810080ED97E00E94E800DF91B7
S11302E0CF911F910F91FF90EF90DF90CF900895E1
S11302F0CF92DF92EF92FF920F931F93CF93DF93EE
S1130300C82F6FEF80E00E94810060E081E00E94CE
S11303108100DC2FD295DF7000E810E00F2EF4E8A6
S1130320EF2EF0E0FF2EF02D68016D2F61706195C6
S1130330D695F60181916F010E948100EC14FD04B1
S1130340A1F76FEF82E00E94810084E690E00E94B2
S1130350E80060E082E00E948100CF706C2F617041
S11303606195C695F80181918F010E9481000E1557
S11303701F05A1F76FEF82E00E94810084E690E000
S11303800E94E80060E082E00E9481008AE090E040
S11303900E94E800DF91CF911F910F91FF90EF90A1
S11303A0DF90CF90089588E99AE30E94E80083E300
S11303B00E941D0182E30E941D0188E20E941D012A
S11303C08CE00E941D0181E00E941D0181E090E00B
S11303D090938C0080938B00089520918B00309132
S11303E08C002130310521F40E94780180E00895C9
S11303F081E0089520918B0030918C0021303105EB
S113040061F4672B29F480580E941D0180E008954F
S113041080540E941D0180E0089581E00895CF93E7
S1130420DF93EC0180918B0090918C00019751F443
S11304308881882349F021960E947801899181114D
S1130440FBCF03C081E001C080E0DF91CF9108952C
S11304500E94CD0080ED0E94D60080E00E94D6006C
S1130460809190000E94D60080919D000E94D60049
S1130470809196000E94D6000E94D30008950E94A5
S1130480CD0080ED0E94D60084E00E94D6008091C9
S11304909B000E94D60080918F000E94D60080911C
S11304A097000E94D6000E94D30008950E94CD00B8
S11304B080ED0E94D60080E00E94D6000E94CD000C
S11304C081ED0E94D60081E00E94DD0080939C00B3
S11304D081E00E94DD008093910080E00E94DD00B5
S11304E080938D000E94D30008950E94CD0080ED7A
S11304F00E94D60084E00E94D6000E94CD0081EDC7
S11305000E94D60081E00E94DD0080938E0081E08D
S11305100E94DD0080939E0080E00E94DD0090E058
S1130520A0E0B0E08093920090939300A093940095
S1130530B09395000E94D3000895CF93DF9300D029
S1130540CDB7DEB70E9449000E94D3010E94C700C4
S113055081E28093960080E480939D0080E58093FF
S113056090000E94280285E280939B0082E18093A0
S11305708F0080E190E0A0E0B0E08093970090933A
S11305809800A0939900B0939A000E943F0260E003
S113059070E080E090E00E94FA0102E910E00E941D
S11305A0560260E070E080E090E00E94FA018091E1
S11305B08D0040E1BE016F5F7F4F90E00E943A03DF
S11305C0CE0101960E940F028AE30E94ED01809100
S11305D0910040E1BE016F5F7F4F90E00E943A03BB
S11305E0CE0101960E940F028AE30E94ED018091E0
S11305F09C0040E1BE016F5F7F4F90E00E943A0390
S1130600CE0101960E940F020E94750261E070E023
S113061080E090E00E94FA0180918E0040E1BE01EA
S11306206F5F7F4F90E00E943A03CE0101960E94D3
S11306300F028FE20E94ED0180919E0040E1BE0115
S11306406F5F7F4F90E00E943A03CE0101960E94B3
S11306500F028FE20E94ED0140E1BE016F5F7F4F08
S1130660F801808191810E943A03CE0101960E9493
S11306700F0295CFBB274A3031F4992322F4BDE20F
S1130680909581959F4F0C944603BB27FB015527FA
S1130690AA27880F991FAA1FA41710F0A41B8395DB
S11306A05051B9F7A05DAA3308F0A95DA193009752
S11306B079F7B111B1931192CB010C945F03DC0172
S11306C0FC01672F71917723E1F7329704C07C9185
S11306D06D9370836291AE17BF07C8F30895F894C1
S10506E0FFCF46
S11306E23B3835320001FFFF0002FFFF0004FFFF29
S11306F20008FFFF0010FFFF0020FFFF0040FFFF84
S107070203040506DD
S9030000FC
