:100000000C942A000C9447000C9447000C94470071
:100010000C9447000C9447000C9447000C94470044
:100020000C9447000C9447000C9447000C94470034
:100030000C9447000C9447000C9447000C94470024
:100040000C9447000C9447000C9447000C94470014
:100050000C94470011241FBECFE5D8E0DEBFCDBF12
:1000600010E0A0E6B0E0ECEDFEE102C005900D92DC
:10007000AC36B107D9F710E0ACE6B0E001C01D9294
:10008000AD36B107E1F70E94440D0C946C0F0C944F
:100090000000EF92FF920F931F937B018C0120E0F1
:1000A00030E040E05FE40E94490388238CF0C801FF
:1000B000B70120E030E040E05FE40E94C1010E940F
:1000C000A9039B01AC01205030404040504806C07D
:1000D000C801B7010E94A9039B01AC01B901CA0183
:1000E0001F910F91FF90EF900895A0E0B0E0EBE733
:1000F000F0E00C94350FDC012B01FA019C91923059
:1001000008F439C1EB018881823008F433C194309E
:1001100069F4843009F02FC111969C91119789815F
:10012000981709F428C1A0E6B0E025C1843009F48D
:1001300021C18230A9F4923009F01DC19A01AD01AC
:1001400088E0EA010990AE01E90109929E0181501F
:10015000C1F7E201898111969C918923818308C1AD
:10016000923009F407C112962D903C901397EB0141
:100170008A819B811496AD90BD90CD90DC901797AD
:10018000EC80FD800E811F819101281B390BB90184
:1001900037FF04C066277727621B730B6032710537
:1001A0000CF061C0121613066CF537014801062EDB
:1001B00004C096948794779467940A94D2F721E0C8
:1001C00030E040E050E004C0220F331F441F551FB1
:1001D0006A95D2F721503040404050402E213F21B7
:1001E00040235123211531054105510521F021E01E
:1001F00030E040E050E079018A01E628F72808293C
:1002000019293CC0232BD1F1260E371E350146019A
:10021000062E04C096948794779467940A94D2F734
:1002200021E030E040E050E004C0220F331F441FC3
:10023000551F6A95D2F721503040404050402A2146
:100240003B214C215D21211531054105510521F04E
:1002500021E030E040E050E059016A01A628B728CB
:10026000C828D9280BC0821593052CF01C01AA249C
:10027000BB24650103C0EE24FF24870111969C91E5
:10028000D20111968C91981709F445C0992339F041
:10029000A80197012A193B094C095D0906C0A6016E
:1002A00095012E193F09400B510B57FD08C01182D3
:1002B0003382228224833583468357831DC081E0A5
:1002C00081833382228288279927DC01821B930B4A
:1002D000A40BB50B84839583A683B7830DC0220F2F
:1002E000331F441F551F24833583468357838281E0
:1002F000938101979383828324813581468157813D
:10030000DA01C9010197A109B1098F5F9F4FAF4F72
:10031000BF4328F30BC0918333822282EA0CFB1C7B
:100320000C1D1D1DE482F5820683178383E0808304
:10033000248135814681578157FF1AC0C901AA27F8
:1003400097FDA095BA2F81709070A070B0705695EF
:10035000479537952795822B932BA42BB52B848318
:100360009583A683B7838281938101969383828349
:10037000DF0101C0D201CD01CDB7DEB7E2E10C94BF
:10038000510FA0E2B0E0E7ECF1E00C94410F69837B
:100390007A838B839C832D833E834F835887E9E048
:1003A000EE2EF12CEC0EFD1ECE010196B7010E943F
:1003B000D2048E010F5E1F4FCE010596B8010E9438
:1003C000D2048A8991E089278A8BC701B801AE01DE
:1003D000475E5F4F0E9475000E94FD03A096E6E015
:1003E0000C945D0FA0E2B0E0E8EFF1E00C94410F57
:1003F00069837A838B839C832D833E834F835887C5
:10040000F9E0EF2EF12CEC0EFD1ECE010196B701A6
:100410000E94D2048E010F5E1F4FCE010596B801D7
:100420000E94D204C701B801AE01475E5F4F0E942F
:1004300075000E94FD03A096E6E00C945D0FA0E21B
:10044000B0E0E5E2F2E00C94350F69837A838B83A8
:100450009C832D833E834F835887CE010196BE0136
:10046000675F7F4F0E94D204CE010596BE016F5E8A
:100470007F4F0E94D2049985923088F0898982301A
:10048000C8F0943019F4823051F404C0843029F457
:10049000923081F480E690E0C6C0923049F420E0CA
:1004A0009A858A89981321E02A87CE010996BBC0D4
:1004B000823049F420E09A858A89981321E02A8BBA
:1004C000CE014196B0C02D843E844F8458886D88FB
:1004D0007E888F88988CEE24FF248701AA24BB2471
:1004E000650140E050E060E070E0E0E0F0E0C10174
:1004F00081709070892BE9F0E60CF71C081D191D1E
:100500009A01AB012A0D3B1D4C1D5D1D80E090E062
:10051000A0E0B0E0E614F7040805190520F481E036
:1005200090E0A0E0B0E0BA01A901480F591F6A1F8E
:100530007B1FAA0CBB1CCC1CDD1C97FE08C081E0F5
:1005400090E0A0E0B0E0A82AB92ACA2ADB2A3196B6
:10055000E032F10549F0660C771C881C991C569412
:10056000479437942794C3CFFA85EA892B893C892D
:100570008B859C85280F391F2E5F3F4F17C0CA01FE
:1005800081709070892B61F016950795F794E79428
:1005900080E090E0A0E0B0E8E82AF92A0A2B1B2BC3
:1005A00076956795579547952F5F3F4F77FDE7CF36
:1005B0000CC0440F551F661F771F17FD4160EE0CDE
:1005C000FF1C001F111F21503040403090E05907A0
:1005D00090E0690790E4790760F32B8F3C8FDB0193
:1005E000CA018F779070A070B07080349105A1051A
:1005F000B10561F447FD0AC0E114F10401051105DC
:1006000029F0405C5F4F6F4F7F4F40781A8EFE1786
:1006100011F081E08A8F4D8F5E8F6F8F78A383E01A
:10062000898FCE0149960E94FD03A096E2E10C94C9
:10063000510FA8E1B0E0EFE1F3E00C94410F6983C2
:100640007A838B839C832D833E834F83588789E0F5
:10065000E82EF12CEC0EFD1ECE010196B7010E9492
:10066000D2048E010F5E1F4FCE010596B8010E9485
:10067000D2048985823040F08989823028F0C70110
:10068000B8010E944A0501C08FEF6896E6E00C941D
:100690005D0FA8E1B0E0EFE4F3E00C94410F698353
:1006A0007A838B839C832D833E834F83588789E095
:1006B000E82EF12CEC0EFD1ECE010196B7010E9432
:1006C000D2048E010F5E1F4FCE010596B8010E9425
:1006D000D2048985823040F08989823028F0C701B0
:1006E000B8010E944A0501C08FEF6896E6E00C94BD
:1006F0005D0FA8E1B0E0EFE7F3E00C94410F6983F0
:100700007A838B839C832D833E834F83588789E034
:10071000E82EF12CEC0EFD1ECE010196B7010E94D1
:10072000D2048E010F5E1F4FCE010596B8010E94C4
:10073000D2048985823040F08989823028F0C7014F
:10074000B8010E944A0501C081E06896E6E00C9479
:100750005D0FACE0B0E0EFEAF3E00C94450F698385
:100760007A838B839C83CE010196BE016B5F7F4FA2
:100770000E94D2048D81823061F1823050F1843048
:1007800021F48E81882351F12EC02F81388537FDC9
:1007900020C06E812F3131051CF06623F9F023C093
:1007A0008EE190E0821B930B29853A854B855C8511
:1007B00004C056954795379527958A95D2F76623B5
:1007C000B1F050954095309521953F4F4F4F5F4F79
:1007D0000EC020E030E040E050E009C02FEF3FEFD6
:1007E0004FEF5FE704C020E030E040E050E8B9019F
:1007F000CA012C96E2E00C94610FDF92EF92FF9217
:100800000F931F93FC01E480F58006811781D1804E
:100810008081823048F480E090E0A0E1B0E0E82AF6
:10082000F92A0A2B1B2BA5C0843009F49FC0823003
:1008300021F4EE24FF24870105C0E114F104010531
:10084000110519F4E0E0F0E096C0628173819FEF3A
:10085000623879070CF05BC022E83FEF261B370BAC
:100860002A3131052CF020E030E040E050E02AC091
:10087000B801A701022E04C0769567955795479554
:100880000A94D2F781E090E0A0E0B0E004C0880FC5
:10089000991FAA1FBB1F2A95D2F70197A109B10979
:1008A0008E219F21A023B1230097A105B10521F03E
:1008B00081E090E0A0E0B0E09A01AB01282B392B59
:1008C0004A2B5B2BDA01C9018F779070A070B07052
:1008D00080349105A105B10539F427FF09C0205CDA
:1008E0003F4F4F4F5F4F04C0215C3F4F4F4F5F4F13
:1008F000E0E0F0E02030A0E03A07A0E04A07A0E402
:100900005A0710F0E1E0F0E079018A0127C0603871
:10091000710564F5FB01E158FF4FD801C7018F77DE
:100920009070A070B07080349105A105B10539F4C4
:10093000E7FE0DC080E490E0A0E0B0E004C08FE3EB
:1009400090E0A0E0B0E0E80EF91E0A1F1B1F17FFA1
:1009500005C016950795F794E794319687E01695AC
:100960000795F794E7948A95D1F705C0EE24FF2404
:100970008701EFEFF0E06E2F679566276795902F60
:100980009F77D794DD24D7948E2F8695492F462BB9
:10099000582F5D29B701CA011F910F91FF90EF9069
:1009A000DF900895FC01DB01408151812281622F9B
:1009B0006F7770E0221F2227221F9381892F880FD3
:1009C000822B282F30E0991F9927991F11969C930D
:1009D000119721153105A9F54115510561057105DD
:1009E00011F482E037C082E89FEF13969C938E93B8
:1009F00012979A01AB0167E0220F331F441F551F66
:100A00006A95D1F783E08C930DC0220F331F441FEA
:100A1000551F12968D919C911397019713969C9355
:100A20008E931297203080E0380780E0480780E4FA
:100A3000580758F314962D933D934D935C93179755
:100A400008952F3F310579F4411551056105710570
:100A500019F484E08C93089564FF03C081E08C93C3
:100A600012C01C9210C02F57304013963C932E9307
:100A7000129783E08C9387E0440F551F661F771F02
:100A80008A95D1F7706414964D935D936D937C9322
:100A9000179708951F93DC01FB019C91923008F495
:100AA00047C08081823008F443C0943051F41196DD
:100AB0001C91843099F58181682F70E0611B710968
:100AC0003FC0843021F0923031F48230B9F181811D
:100AD000882389F12DC011961C9111978230F1F075
:100AE00081811817D9F412962D913C911397828128
:100AF00093818217930794F028173907BCF0149656
:100B00008D919D910D90BC91A02D248135814681C0
:100B10005781281739074A075B0718F4112341F05A
:100B20000AC082179307A407B50740F4112319F0F0
:100B300061E070E005C06FEF7FEF02C060E070E041
:100B4000CB011F910895DF93CF93CDB7DEB7A7E216
:100B5000B0E0E7E2F0E080818F778C93A7E2B0E02D
:100B6000E7E2F0E0808180648C93A7E2B0E0E7E206
:100B7000F0E0808180628C93A6E2B0E0E6E2F0E0F3
:100B8000808180688C93A6E2B0E0E6E2F0E08081AC
:100B90008F7D8C93A6E2B0E0E6E2F0E08081877F73
:100BA0008C93A6E2B0E0E6E2F0E080818B7F8C934C
:100BB000A6E2B0E0E6E2F0E080818D7F8C93A6E2D1
:100BC000B0E0E6E2F0E0808181608C93CF91DF912C
:100BD0000895DF93CF93CDB7DEB727970FB6F8947C
:100BE000DEBF0FBECDBF8F8385E0FE013296DF01F1
:100BF000682F1D926A95E9F7198217C0198212C0F1
:100C00008981282F30E08F81482F4170CE010296D4
:100C1000FC01E20FF31F40838F8186958F838981CA
:100C20008F5F89838981853058F38F81882331F7DD
:100C3000A7E2B0E0E7E2F0E08081482F8981882FC9
:100C400090E09C0121503040CE010296FC01E20F61
:100C5000F31F8081282F30E08981882F90E0019751
:100C6000B90102C0660F771F8A95E2F7CB01582FB2
:100C70008981882F90E09C0122503040CE0102965D
:100C8000FC01E20FF31F8081282F30E08981882F3B
:100C900090E00297B90102C0660F771F8A95E2F7CC
:100CA000CB01582B8981882F90E09C012350304044
:100CB000CE010296FC01E20FF31F8081282F30E065
:100CC0008981882F90E00397B90102C0660F771FD2
:100CD0008A95E2F7CB01582B8981882F90E09C01FF
:100CE00024503040CE010296FC01E20FF31F8081B8
:100CF000282F30E08981882F90E00497B90102C045
:100D0000660F771F8A95E2F7CB01582B8981882FD0
:100D100090E09C0125503040CE010296FC01E20F8C
:100D2000F31F8081282F30E08981882F90E005977C
:100D3000B90102C0660F771F8A95E2F7CB01852BB8
:100D4000842B8C93A6E2B0E0E6E2F0E08081806440
:100D50008C93A6E2B0E0E6E2F0E0808180618C93C3
:100D6000E5E2F0E0808127960FB6F894DEBF0FBE73
:100D7000CDBFCF91DF910895DF93CF9300D00F9235
:100D8000CDB7DEB71B821A821982A6E2B0E0E6E296
:100D9000F0E0808180648C93A6E2B0E0E6E2F0E0CF
:100DA000808180618C93198270C089818230A8F51E
:100DB000E4E2F0E08081482F50E08981882F90E0C4
:100DC0009C012A5F3F4F81E090E002C0880F991F8D
:100DD0002A95E2F7482359238981882F90E09C01C6
:100DE0002A5F3F4F998182E08927882F90E0BC01DC
:100DF000269FC001279F900D369F900D11249A01C8
:100E000002C0359527958A95E2F7C9019C018A8130
:100E10009B81820F931F9B838A83E5E2F0E08081B0
:100E2000482F50E08981282F30E081E090E002C017
:100E3000880F991F2A95E2F7BA01682379238981DF
:100E4000482F50E08981882F90E09C012E5F3F4F12
:100E500082E090E0822793279C01429FC001439F3C
:100E6000900D529F900D11249B0102C0359527953E
:100E70008A95E2F7C9019C018A819B81820F931FA9
:100E80009B838A8389818F5F89838981883008F475
:100E90008CCF8A819B810F900F900F90CF91DF9123
:100EA0000895DF93CF9300D0CDB7DEB789836A83EF
:100EB0008981803208F0CAC08A81882321F08A8122
:100EC000813009F0C3C08981883068F5AAE3B0E0B9
:100ED000EAE3F0E08081482F8981882F90E09C012F
:100EE0002770307081E090E002C0880F991F2A952A
:100EF000E2F7809584238C93AAE3B0E0EAE3F0E084
:100F00008081482F8A81282F30E08981882F90E0C6
:100F100087709070B90102C0660F771F8A95E2F75B
:100F2000CB01842B8C9389818850883068F5A7E3A6
:100F3000B0E0E7E3F0E08081482F8981882F90E0DE
:100F40009C012770307081E090E002C0880F991FEB
:100F50002A95E2F7809584238C93A7E3B0E0E7E33A
:100F6000F0E08081482F8A81282F30E08981882F06
:100F700090E087709070B90102C0660F771F8A9564
:100F8000E2F7CB01842B8C9389818051883068F5FE
:100F9000A4E3B0E0E4E3F0E08081482F8981882F6A
:100FA00090E09C012770307081E090E002C0880FD3
:100FB000991F2A95E2F7809584238C93A4E3B0E0EF
:100FC000E4E3F0E08081482F8A81282F30E0898196
:100FD000882F90E087709070B90102C0660F771F6C
:100FE0008A95E2F7CB01842B8C93898188518830D4
:100FF00068F5A1E3B0E0E1E3F0E08081482F89816A
:10100000882F90E09C012770307081E090E002C052
:10101000880F991F2A95E2F7809584238C93A1E38A
:10102000B0E0E1E3F0E08081482F8A81282F30E0B2
:101030008981882F90E087709070B90102C0660F97
:10104000771F8A95E2F7CB01842B8C930F900F903A
:10105000CF91DF910895DF93CF9300D0CDB7DEB766
:1010600089836A838981803208F0CAC08A81882393
:1010700021F08A81813009F0C3C08981883068F508
:10108000ABE3B0E0EBE3F0E08081482F8981882F6B
:1010900090E09C012770307081E090E002C0880FE2
:1010A000991F2A95E2F7809584238C93ABE3B0E0F7
:1010B000EBE3F0E08081482F8A81282F30E089819E
:1010C000882F90E087709070B90102C0660F771F7B
:1010D0008A95E2F7CB01842B8C93898188508830E4
:1010E00068F5A8E3B0E0E8E3F0E08081482F89816B
:1010F000882F90E09C012770307081E090E002C062
:10110000880F991F2A95E2F7809584238C93A8E392
:10111000B0E0E8E3F0E08081482F8A81282F30E0BA
:101120008981882F90E087709070B90102C0660FA6
:10113000771F8A95E2F7CB01842B8C9389818051AC
:10114000883068F5A5E3B0E0E5E3F0E08081482F62
:101150008981882F90E09C012770307081E090E0B9
:1011600002C0880F991F2A95E2F7809584238C93FB
:10117000A5E3B0E0E5E3F0E08081482F8A81282FE5
:1011800030E08981882F90E087709070B90102C0AB
:10119000660F771F8A95E2F7CB01842B8C938981A8
:1011A0008851883068F5A2E3B0E0E2E3F0E08081A6
:1011B000482F8981882F90E09C012770307081E052
:1011C00090E002C0880F991F2A95E2F7809584234A
:1011D0008C93A2E3B0E0E2E3F0E08081482F8A81C3
:1011E000282F30E08981882F90E087709070B901B6
:1011F00002C0660F771F8A95E2F7CB01842B8C9390
:101200000F900F90CF91DF910895DF93CF9300D08F
:10121000CDB7DEB78A838A81803208F097C08A8191
:10122000883010F5E9E3F0E08081482F50E08A81B2
:10123000882F90E09C012770307081E090E002C020
:10124000880F991F2A95E2F79A01282339238A816A
:10125000882F90E087709070A90102C0559547953E
:101260008A95E2F7CA0189838A818850883010F50F
:10127000E6E3F0E08081482F50E08A81882F90E0FB
:101280009C012770307081E090E002C0880F991FA8
:101290002A95E2F79A01282339238A81882F90E042
:1012A00087709070A90102C0559547958A95E2F71D
:1012B000CA0189838A818051883010F5E3E3F0E028
:1012C0008081482F50E08A81882F90E09C01277010
:1012D000307081E090E002C0880F991F2A95E2F7F4
:1012E0009A01282339238A81882F90E08770907093
:1012F000A90102C0559547958A95E2F7CA018983ED
:101300008A818851883010F5E0E3F0E08081482F31
:1013100050E08A81882F90E09C012770307081E036
:1013200090E002C0880F991F2A95E2F79A012823BE
:1013300039238A81882F90E087709070A90102C0BC
:10134000559547958A95E2F7CA01898389810F905F
:101350000F90CF91DF910895DF93CF93CDB7DEB794
:10136000E8970FB6F894DEBF0FBECDBF8CE161E009
:101370000E9451078EE161E00E9451078FE161E018
:101380000E94510788E061E00E94510789E061E016
:101390000E9451078AE061E00E9451078BE061E002
:1013A0000E9451078CE061E00E9451078DE061E0EE
:1013B0000E9451078EE061E00E9451078FE061E0DA
:1013C0000E94510780E090E0A0EFB1E48DAB9EABAE
:1013D000AFABB8AF6DA97EA98FA998AD20E030E082
:1013E0004AEF54E40E941F02DC01CB0189AB9AABA7
:1013F000ABABBCAB69A97AA98BA99CA920E030E072
:1014000040E85FE30E94790388232CF481E090E0B8
:1014100098AB8FA73FC069A97AA98BA99CA920E0A6
:101420003FEF4FE757E40E94190318164CF56DA9DA
:101430007EA98FA998AD20E030E040E251E40E94FF
:101440001F02DC01CB01BC01CD010E944900DC017F
:10145000CB0198AB8FA70FC088EC90E09EA78DA71B
:101460008DA59EA50197F1F79EA78DA78FA598A999
:10147000019798AB8FA78FA598A9009769F714C01B
:1014800069A97AA98BA99CA90E944900DC01CB011A
:1014900098AB8FA78FA598A99CA78BA78BA59CA578
:1014A0000197F1F79CA78BA788E30E94BC0B80E013
:1014B00090E0A0E2B2E48FA398A7A9A7BAA76FA172
:1014C00078A589A59AA520E030E04AEF54E40E946F
:1014D0001F02DC01CB018BA39CA3ADA3BEA36BA118
:1014E0007CA18DA19EA120E030E040E85FE30E9456
:1014F000790388232CF481E090E09AA389A33FC06C
:101500006BA17CA18DA19EA120E03FEF4FE757E4A6
:101510000E94190318164CF56FA178A589A59AA504
:1015200020E030E040E251E40E941F02DC01CB01E8
:10153000BC01CD010E944900DC01CB019AA389A323
:101540000FC088EC90E098A38F8F8F8D98A10197A2
:10155000F1F798A38F8F89A19AA101979AA389A3E4
:1015600089A19AA1009769F714C06BA17CA18DA1F4
:101570009EA10E944900DC01CB019AA389A389A105
:101580009AA19E8F8D8F8D8D9E8D0197F1F79E8FE5
:101590008D8F8EE00E94BC0B80E090E0A0E2B2E470
:1015A000898F9A8FAB8FBC8F698D7A8D8B8D9C8D37
:1015B00020E030E04AEF54E40E941F02DC01CB013E
:1015C0008D8B9E8BAF8BB88F6D897E898F89988D1F
:1015D00020E030E040E85FE30E94790388232CF4A8
:1015E00081E090E09C8B8B8B3FC06D897E898F89D9
:1015F000988D20E03FEF4FE757E40E94190318163B
:101600004CF5698D7A8D8B8D9C8D20E030E040E229
:1016100051E40E941F02DC01CB01BC01CD010E94FC
:101620004900DC01CB019C8B8B8B0FC088EC90E0D8
:101630009A8B898B89899A890197F1F79A8B898B83
:101640008B899C8901979C8B8B8B8B899C890097BC
:1016500069F714C06D897E898F89988D0E94490031
:10166000DC01CB019C8B8B8B8B899C89988B8F8722
:101670008F8598890197F1F7988B8F8781E00E9479
:10168000BC0B80E090E0A0E0B0E48B879C87AD8746
:10169000BE876B857C858D859E8520E030E04AEF96
:1016A00054E40E941F02DC01CB018F839887A98735
:1016B000BA876F81788589859A8520E030E040E897
:1016C0005FE30E94790388232CF481E090E09E83FD
:1016D0008D833FC06F81788589859A8520E03FEFB3
:1016E0004FE757E40E94190318164CF56B857C856B
:1016F0008D859E8520E030E040E251E40E941F028B
:10170000DC01CB01BC01CD010E944900DC01CB0111
:101710009E838D830FC088EC90E09C838B838B81AC
:101720009C810197F1F79C838B838D819E8101972A
:101730009E838D838D819E81009769F714C06F8190
:10174000788589859A850E944900DC01CB019E83BA
:101750008D838D819E819A83898389819A81019766
:10176000F1F79A838983E8960FB6F894DEBF0FBE2F
:10177000CDBFCF91DF910895DF93CF93CDB7DEB783
:101780002F970FB6F894DEBF0FBECDBF8F878FE1C6
:1017900060E00E942B088EE160E00E942B08E8E3E5
:1017A000F0E08F8580838CE161E00E942B0880E06F
:1017B00090E0A0E0B0E48B879C87AD87BE876B8507
:1017C0007C858D859E8520E030E04AEF54E40E94C0
:1017D0001F02DC01CB018F839887A987BA876F81AD
:1017E000788589859A8520E030E040E85FE30E94B3
:1017F000790388232CF481E090E09E838D833FC0A1
:101800006F81788589859A8520E03FEF4FE757E41F
:101810000E94190318164CF56B857C858D859E8575
:1018200020E030E040E251E40E941F02DC01CB01E5
:10183000BC01CD010E944900DC01CB019E838D8358
:101840000FC088EC90E09C838B838B819C810197F7
:10185000F1F79C838B838D819E8101979E838D837D
:101860008D819E81009769F714C06F817885898585
:101870009A850E944900DC01CB019E838D838D8176
:101880009E819A83898389819A810197F1F79A834E
:1018900089838CE160E00E942B082F960FB6F894A4
:1018A000DEBF0FBECDBFCF91DF910895DF93CF9301
:1018B000CDB7DEB72F970FB6F894DEBF0FBECDBF02
:1018C0008F878FE161E00E942B088EE160E00E942B
:1018D0002B08E8E3F0E08F8580838CE161E00E94D3
:1018E0002B0880E090E0A0E0B0E48B879C87AD8778
:1018F000BE876B857C858D859E8520E030E04AEF34
:1019000054E40E941F02DC01CB018F839887A987D2
:10191000BA876F81788589859A8520E030E040E834
:101920005FE30E94790388232CF481E090E09E839A
:101930008D833FC06F81788589859A8520E03FEF50
:101940004FE757E40E94190318164CF56B857C8508
:101950008D859E8520E030E040E251E40E941F0228
:10196000DC01CB01BC01CD010E944900DC01CB01AF
:101970009E838D830FC088EC90E09C838B838B814A
:101980009C810197F1F79C838B838D819E810197C8
:101990009E838D838D819E81009769F714C06F812E
:1019A000788589859A850E944900DC01CB019E8358
:1019B0008D838D819E819A83898389819A81019704
:1019C000F1F79A8389838CE160E00E942B082F96BF
:1019D0000FB6F894DEBF0FBECDBFCF91DF91089553
:1019E000DF93CF93CDB7DEB7AFE4B0E0EFE4F0E044
:1019F000808180688C93AFE4B0E0EFE4F0E0808118
:101A00008F7B8C93AFE4B0E0EFE4F0E08081877FE0
:101A10008C93AFE4B0E0EFE4F0E0808182608C93DF
:101A2000AFE4B0E0EFE4F0E080818E7F8C93AEE431
:101A3000B0E0EEE4F0E0808180618C93AEE4B0E051
:101A4000EEE4F0E0808188608C93AEE4B0E0EEE4F8
:101A5000F0E0808184608C93AEE4B0E0EEE4F0E0EE
:101A600080818D7F8C93AEE4B0E0EEE4F0E0808185
:101A70008E7F8C93E6E4F0E087E08083E7E4F0E09B
:101A80001082CF91DF910895DF93CF93CDB7DEB76A
:101A9000A0970FB6F894DEBF0FBECDBF0E94A3057E
:101AA0000E94AC090E94F00C8DE161E00E94510798
:101AB00082E08A8B1D8A1E8A9E01295E3F4F3B8FE2
:101AC0002A8F48E650E05D8F4C8F53E05E8FEC8D9F
:101AD000FD8D00802C8D3D8D2F5F3F4F3D8F2C8FD6
:101AE000EA8DFB8D00822A8D3B8D2F5F3F4F3B8F10
:101AF0002A8F3E8D31503E8F4E8D442341F7198AF7
:101B0000188A1F860E94F00C8DE161E00E94510747
:101B10008BE161E00E9451078BE160E00E942B089D
:101B200080E80E94BC0B84E70E94560C85E60E9468
:101B3000560C8DE60E94560C80E70E94560C8DE3F1
:101B40000E94560C81E00E94E9058C8B8C89282F1D
:101B500030E084EF91E0FC012E9FC0012F9F900D9B
:101B60003E9F900D112498A38F8F2F8D38A1332382
:101B700034F44F8D58A141505F4F58A34F8FEF8DD4
:101B8000F8A18F2F992787FD9A958B8B8A89282F0B
:101B900030E0CE014796FC01E20FF31F8B89808372
:101BA0008A898F5F8A8B8A89833009F0B8C08A89D5
:101BB000882F90E09C0121503040CE014796FC01D7
:101BC000E20FF31F8081482F50E08A89882F90E030
:101BD0009C0122503040CE014796FC01E20FF31FDA
:101BE0008081882F90E0480F591F8A89882F90E0C4
:101BF0009C0123503040CE014796FC01E20FF31FB9
:101C00008081882F90E0840F951F23E030E0B90198
:101C10000E940E0FCB01898B8989888B1A8A19C083
:101C20008A89482F50E089899AE0692F0E94020F23
:101C3000892F282FCE014596FC01E40FF51F208344
:101C400089899AE0692F0E94020F898B8A898F5FA8
:101C50008A8B8A89823020F386E80E94BC0B8A89AD
:101C6000882F90E09C0121503040CE014596FC0128
:101C7000E20FF31F8081805D0E94560C8A89882FB5
:101C800090E09C0122503040CE014596FC01E20FCD
:101C9000F31F8081805D0E94560C1A8A88898C31DE
:101CA00020F4EAE4F0E0108233C088898C3140F0FF
:101CB0008889843228F4EAE4F0E082E0808328C056
:101CC0008889853240F088898B3228F4EAE4F0E094
:101CD00084E080831DC088898C3240F088898233FB
:101CE00028F4EAE4F0E086E0808312C08889843337
:101CF00040F08889873328F4EAE4F0E088E08083C4
:101D000007C0EAE4F0E088E080838F858F5F8F87EB
:101D10008F85843621F48BE161E00E942B0880E0FE
:101D200090E0A8ECB2E48B879C87AD87BE876B857B
:101D30007C858D859E8520E030E04AEF54E40E944A
:101D40001F02DC01CB018F839887A987BA876F8137
:101D5000788589859A8520E030E040E85FE30E943D
:101D6000790388232CF481E090E09E838D833FC02B
:101D70006F81788589859A8520E03FEF4FE757E4AA
:101D80000E94190318164CF56B857C858D859E8500
:101D900020E030E040E251E40E941F02DC01CB0170
:101DA000BC01CD010E944900DC01CB019E838D83E3
:101DB0000FC088EC90E09C838B838B819C81019782
:101DC000F1F79C838B838D819E8101979E838D8308
:101DD0008D819E81009769F7B5CE6F817885898561
:101DE0009A850E944900DC01CB019E838D838D8101
:101DF0009E819A83898389819A810197F1F79A83D9
:101E00008983A0CE991B79E004C0991F961708F02A
:101E1000961B881F7A95C9F78095089597FB092E20
:101E200007260AD077FD04D00CD006D000201AF483
:101E3000709561957F4F0895F6F7909581959F4F26
:101E40000895AA1BBB1B51E107C0AA1FBB1FA61701
:101E5000B70710F0A61BB70B881F991F5A95A9F753
:101E600080959095BC01CD0108952F923F924F929D
:101E70005F926F927F928F929F92AF92BF92CF921A
:101E8000DF92EF92FF920F931F93CF93DF93CDB723
:101E9000DEB7CA1BDB0B0FB6F894DEBF0FBECDBF9B
:101EA00009942A88398848885F846E847D848C846C
:101EB0009B84AA84B984C884DF80EE80FD800C8175
:101EC0001B81AA81B981CE0FD11D0FB6F894DEBF58
:0C1ED0000FBECDBFED010895F894FFCFC8
:0C1EDC00000000000000000000000000FA
:00000001FF
