S0160000536563757269747973797374656D2E7372656311
S11300000C942A000C94A2030C9447000C9447000F
S11300100C9447000C9447000C9447000C94470040
S11300200C9447000C9447000C9447000C94470030
S11300300C9447000C9447000C9447000C94470020
S11300400C9447000C9447000C9447000C94470010
S11300500C94470011241FBECFE5D8E0DEBFCDBF0E
S113006010E0A0E6B0E0EAE2F8E002C005900D92EC
S1130070A23FB107D9F721E0A2EFB0E001C01D9281
S1130080A530B207E1F70E94E7030C9413040C9423
S11300900000E199FECF9FBB8EBB6DBBE29AE19A53
S11300A00895E199FECF9FBB8EBBE09A8DB308956E
S11300B0EF92FF921F93CF93DF93A4E6B0E00F2E4D
S11300C0F2EFEF2EF0E0FF2EF02D24EA30E011E005
S11300D0EC91E43010F5F0E0E05AFF4FE081F0E0FD
S11300E0AF01EA016A9112967C91129711969C9144
S11300F011979723962B98833297908113968C911E
S113010013978723892B8083F70111937F0114961A
S1130110A217B307E9F680E001C081E0DF91CF9137
S11301201F91FF90EF9008958031E0F590E0FC017D
S1130130EE0FFF1FEE0FFF1FEC59FF4F22812F3FE1
S113014099F5FC01EE50FF4F2081213079F56111C2
S113015014C0880F991F880F991FFC01EC59FF4F99
S1130160A081B0E0A05ABF4FAC91B0E09C918181D6
S1130170809589238C9380E008956F3FC9F4880F9C
S1130180991F880F991FFC01EC59FF4FA081B0E023
S1130190A05ABF4FAC91B0E09C918181892B8C9384
S11301A080E0089581E0089581E0089581E0089554
S11301B080E00895803130F590E0FC01EE0FFF1FE0
S11301C0EE0FFF1FEC59FF4F228121111DC0FC01CE
S11301D0EE50FF4F20812130C9F4880F991F880FFA
S11301E0991FFC01EC59FF4FA081B0E0A05ABF4F0A
S11301F0AC91B0E012978C9191818923FB018083AB
S113020080E0089581E0089581E0089581E00895F3
S1130210CF92DF92EF92FF920F931F93CF93E12C33
S1130220F12C6FEF80E00E9494006FEF81E00E9458
S113023094006FEF82E00E9494006FEF83E00E94CD
S1130240940060E08E2D0E94940004E010E00F2ED4
S1130250F5E0CF2ED12CF02D05C08FEFC81AD80AA7
S11302600F5F1F4FC02F64E071E0802F0E94DA00FF
S113027080910401811151C064E071E08C2F0E94CF
S1130280DA00809104018823B9F381E0E816F104CF
S1130290E9F024F4E114F10451F03FC082E0E816DF
S11302A0F10409F183E0E816F10451F136C0043099
S11302B0110509F441C00530110509F43FC00630A9
S11302C01105F1F10730110541F53CC00430110569
S11302D0D9F105301105D1F106301105C9F1073006
S11302E01105D9F437C004301105B1F105301105F9
S11302F0A9F106301105A1F10730110571F432C0DE
S11303000430110589F10530110581F1063011051C
S113031079F10730110581F52DC088E0C816D104A4
S11303200CF49BCF8FEFE81AF80A84E0E816F10486
S113033009F077CF86E426C087E324C088E322C08F
S113034089E320C08FE21EC084E31CC085E31AC089
S113035086E318C08AE216C081E314C082E312C0A7
S113036083E310C08DE20EC08FE30CC080E30AC0AB
S11303708DE308C08BE206C088E0C816D1040CF4F3
S11303806CCF86E4CF911F910F91FF90EF90DF9097
S1130390CF900895CF93DF9300D000D0CDB7DEB7D0
S11303A019821A821B821C82880F991F880F991F39
S11303B0A0E0B0E049815A816B817C8148175907DC
S11303C06A077B07ACF449815A816B817C814F5F5A
S11303D05F4F6F4F7F4F49835A836B837C8349817F
S11303E05A816B817C81481759076A077B075CF344
S11303F00F900F900F900F90DF91CF910895CF92AF
S1130400DF92EF92FF920F931F93CF93DF93C82F46
S113041060E088E00E94940060E089E00E9494001B
S1130420DC2FD295DF7004EA10E00F2EF8EAEF2EED
S1130430F0E0FF2EF02D68016D2F61706195D69567
S1130440F60181916F010E949400EC14FD04A1F760
S11304506FEF8AE00E94940084E690E00E94CA0153
S113046060E08AE00E949400CF706C2F6170619507
S1130470C695F80181918F010E9494000E151F0505
S1130480A1F76FEF8AE00E94940084E690E00E9456
S1130490CA0160E08AE00E94940080ED97E00E9427
S11304A0CA01DF91CF911F910F91FF90EF90DF90E0
S11304B0CF900895CF92DF92EF92FF920F931F9304
S11304C0CF93DF93C82F6FEF88E00E94940060E021
S11304D089E00E949400DC2FD295DF7004EA10E0DA
S11304E00F2EF8EAEF2EF0E0FF2EF02D68016D2FAD
S11304F061706195D695F60181916F010E94940017
S1130500EC14FD04A1F76FEF8AE00E94940084E6E6
S113051090E00E94CA0160E08AE00E949400CF70DB
S11305206C2F61706195C695F80181918F010E94CD
S113053094000E151F05A1F76FEF8AE00E94940046
S113054084E690E00E94CA0160E08AE00E94940080
S11305508AE090E00E94CA01DF91CF911F910F9130
S1130560FF90EF90DF90CF90089588E99AE30E947E
S1130570CA0183E30E94FF0182E30E94FF0188E233
S11305800E94FF018CE00E94FF0181E00E94FF01B4
S113059081E090E0909303018093020108952091FB
S11305A00201309103012130310521F40E945A02E5
S11305B080E0089581E008952091020130910301C3
S11305C02130310561F4672B29F480580E94FF0122
S11305D080E0089580540E94FF0180E0089581E046
S11305E008958091020190910301019729F481E01B
S11305F00E94FF0180E0089581E00895CF93DF9386
S1130600EC018091020190910301019751F48881DA
S1130610882349F021960E945A0289918111FBCFC7
S113062003C081E001C080E0DF91CF9108951F9362
S1130630CF93DF9364C060E070E080E090E00E94BC
S1130640DC0288EA90E00E94FE0261E070E08D2FF7
S113065090E00E94DC020E940801C82F863409F44D
S113066050C08D2F90E00E945100C81301C01F5F3D
S1130670DF5F8AE20E94CF02CD3309F042C08D2FA2
S113068090E0212F30E02F5F3F4F82179307B1F4A2
S11306900E94F10260E070E080E090E00E94DC02E1
S11306A087EB90E00E94FE0261E08BE090E00E9404
S11306B049006FEF8FE00E94940021C00E94F10274
S11306C060E070E080E090E00E94DC0285EC90E065
S11306D00E94FE028AE090E00E94510061E0680FEF
S11306E08AE090E00E9449002FEF87EA91E62150CA
S11306F080409040E1F700C000000E94F10210E049
S1130700D0E08AE090E00E945100823039F08BE022
S113071090E00E945100813009F08DCF8AE090E092
S11307200E945100823051F460E070E080E090E07B
S11307300E94DC0284ED90E00E94FE02DF91CF91E2
S11307401F9108951F920F920FB60F9211242F93A9
S11307503F934F935F936F937F938F939F93AF9345
S1130760BF93EF93FF930E94F10260E070E080E09A
S113077090E00E94DC0281EE90E00E94FE022FEFE6
S113078083ED90E3215080409040E1F700C00000E9
S113079060E08AE090E00E94490060E08BE090E035
S11307A00E9449000E94F1020E941703FF91EF91F9
S11307B0BF91AF919F918F917F916F915F914F9175
S11307C03F912F910F900FBE0F901F90189560E3EB
S11307D080E090E00E94490061E381E090E00E94A3
S11307E0490062E382E090E00E94490063E383E011
S11307F090E00E94490060E08AE090E00E94490095
S113080060E08BE090E00E9449000E9458000E9442
S1130810B50280E48BBF789460E08FE00E9494007E
S10D08200E941703FDCFF894FFCFE8
S113082A3B3835320001FFFF0002FFFF0004FFFFDF
S113083A0008FFFF001000FF002000FF004000FF37
S113084A008000FF0201FFFF0202FFFF0204FFFF14
S113085A0208FFFF0210FFFF0220FFFF0240FFFF12
S113086A0301FFFF0B0C0D0E456E74657220506177
S113087A7373776F726400446F6F7220556E6C6F76
S113088A636B65640057726F6E6720506173737788
S113089A6F726400446F6F7220426C6F636B65649D
S11308AA0053797374656D20526573657474656455
S10508BA000038
S9030000FC
